:020000040800F2
:10000000002800202908000891060008970600082B
:100010009D060008A3060008A906000800000000CD
:10002000000000000000000000000000AF06000813
:10003000BB06000800000000C7060008D306000841
:1000400071080008710800087108000871080008AC
:10005000710800087108000871080008710800089C
:10006000710800087108000871080008710800088C
:10007000710800087108000871080008710800087C
:10008000710800087108000871080008710800086C
:10009000710800087108000871080008710800085C
:1000A000710800087108000871080008710800084C
:1000B00071080008710800080000000071080008BD
:1000C000710800080000000000000000710800082E
:1000D000000000007108000871080008000000001E
:1000E000710800087108000871080008000000008D
:1000F0000000000000000000000000000000000000
:0C01000000000000000000005FF808F1A3
:10010C0010B5054C237833B9044B13B10448AFF345
:10011C0000800123237010BD80000020000000002F
:10012C00B825000808B5034B1BB103490348AFF3CE
:10013C00008008BD0000000084000020B8250008E5
:10014C0080B500AF00224FF40041214800F072FE50
:10015C00002210211E4800F06DFE002220211C48B8
:10016C0000F068FE00224021194800F063FE0022D6
:10017C008021174800F05EFE00224FF48071144875
:10018C0000F058FE00224FF40071114800F052FEAE
:10019C0000224FF480610E4800F04CFE00224FF418
:1001AC0000610B4800F046FE00224FF480510848D5
:1001BC0000F040FE00224FF40051054800F03AFEDA
:1001CC0000224FF48041024800F034FE00BF80BD95
:1001DC000008014080B582B000AF78607B68002BCE
:1001EC0006D101224FF400413A4800F023FE6CE0A6
:1001FC007B68012B05D101221021364800F01AFE34
:10020C0063E07B68022B05D101222021314800F0EC
:10021C0011FE5AE07B68032B05D1012240212D48A9
:10022C0000F008FE51E07B68042B05D101228021EF
:10023C00284800F0FFFD48E07B68052B06D1012221
:10024C004FF48071234800F0F5FD3EE07B68062BEF
:10025C0006D101224FF400711E4800F0EBFD34E092
:10026C007B68072B06D101224FF48061194800F0FE
:10027C00E1FD2AE07B68082B06D101224FF40061D6
:10028C00144800F0D7FD20E07B68092B06D1012231
:10029C004FF480510F4800F0CDFD16E07B680A2B1F
:1002AC0006D101224FF400510A4800F0C3FD0CE0C6
:1002BC007B680B2B06D101224FF48041054800F0DE
:1002CC00B9FD02E0044801F0DDF900BF0837BD4676
:1002DC0080BD00BF00080140D025000880B582B069
:1002EC0000AF78607B68002B06D100224FF40041F0
:1002FC00384800F09FFD68E07B68012B05D1002297
:10030C001021344800F096FD5FE07B68022B05D18C
:10031C00002220212F4800F08DFD56E07B68032B36
:10032C0005D1002240212B4800F084FD4DE07B6874
:10033C00042B05D100228021264800F07BFD44E0EF
:10034C007B68052B06D100224FF48071214800F008
:10035C0071FD3AE07B68062B06D100224FF4007148
:10036C001C4800F067FD30E07B68072B06D10022AB
:10037C004FF48061174800F05DFD26E07B68082B88
:10038C0006D100224FF40061124800F053FD1CE02E
:10039C007B68092B06D100224FF480510D4800F0E8
:1003AC0049FD12E07B680A2B06D100224FF4005164
:1003BC00084800F03FFD08E07B680B2B05D10022BC
:1003CC004FF48041034800F035FD00BF0837BD46AF
:1003DC0080BD00BF0008014080B500AF00F044FABA
:1003EC0000F0ACF800F0E6F8FFF7AAFE4C4B1B68E7
:1003FC003B2B1FDD4A4B00221A604A4B1B68013312
:10040C00484A1360474B1B683B2B13DD454B0022BE
:10041C001A60454B1B681846FFF760FF424B1B6880
:10042C000133414A1360404B1B680B2B02DD3E4BE2
:10043C0000221A603D4B1B68002B07DC384B1B68F5
:10044C000133374A1360394B02221A60344B196856
:10045C00374B83FB01235A10CB17D21A13469B0040
:10046C001344CA1A002A1FD12D4B1B680433082BC6
:10047C0003D80B20FFF732FF0BE0294B1B682C4AEB
:10048C0082FB03125210DB17D31A013B1846FFF7FD
:10049C0025FF234B1B68264A82FB03125210DB17E5
:1004AC00D31A1846FFF796FE1F4B1B681846FFF72A
:1004BC0091FE204B1B68002B23DC1F4B1B68002B71
:1004CC000ED1184B1B681A4A82FB03125210DB1711
:1004DC00D31A1846FFF77EFE164B01221A600DE068
:1004EC00104B1B68124A82FB03125210DB17D31AF3
:1004FC001846FFF7F3FE0F4B00221A600D4B0A2231
:10050C001A600C4B1B68013B0A4A1360074B1B68B3
:10051C00013B064A13600A2000F008FA64E700BFAA
:10052C009C00002004000020000000200800002097
:10053C00676666660C000020A000002080B590B0B5
:10054C0000AF07F1180328220021184601F092F899
:10055C003B1D00221A605A609A60DA601A6102230D
:10056C00BB610123BB621023FB6200237B6307F199
:10057C001803184600F076FC0346002B01D000F05F
:10058C0059F80F237B600023BB600023FB60002322
:10059C003B6100237B613B1D0021184600F0E4FE0B
:1005AC000346002B01D000F045F800BF4037BD4694
:1005BC0080BD000080B586B000AF07F108030022B3
:1005CC001A605A609A60DA60184B9B69174A43F0BC
:1005DC0004039361154B9B6903F004037B607B68F8
:1005EC0000224FF6F061124800F024FC4FF6F06345
:1005FC00BB600123FB6000233B6102237B6107F19D
:10060C00080319460A4800F099FA4FF48073BB604E
:10061C000023FB6000233B6107F1080319460448E3
:10062C0000F08CFA00BF1837BD4680BD00100240A8
:10063C000008014080B400AF72B600BFFEE70000B6
:10064C0080B483B000AF0E4B9B690D4A43F001039D
:10065C0093610B4B9B6903F001037B607B68084B38
:10066C00DB69074A43F08053D361054BDB6903F028
:10067C0080533B603B6800BF0C37BD4680BC704765
:10068C000010024080B400AFFEE780B400AFFEE77C
:10069C0080B400AFFEE780B400AFFEE780B400AFDB
:1006AC00FEE780B400AF00BFBD4680BC704780B48D
:1006BC0000AF00BFBD4680BC704780B400AF00BF28
:1006CC00BD4680BC704780B500AF00F013F900BF89
:1006DC0080BD80B586B000AFF860B9607A60002349
:1006EC007B610AE0AFF300800146BB685A1CBA601C
:1006FC00CAB21A707B6901337B617A697B689A4252
:10070C00F0DB7B6818461837BD4680BD80B586B0D7
:10071C0000AFF860B9607A6000237B6109E0BB68C8
:10072C005A1CBA601B781846AFF300807B69013302
:10073C007B617A697B689A42F1DB7B6818461837D3
:10074C00BD4680BD80B483B000AF78604FF0FF33FE
:10075C0018460C37BD4680BC704780B483B000AFE0
:10076C00786039603B684FF400525A600023184699
:10077C000C37BD4680BC704780B483B000AF786046
:10078C00012318460C37BD4680BC704780B485B039
:10079C0000AFF860B9607A60002318461437BD4684
:1007AC0080BC704780B586B000AF7860144A154B9A
:1007BC00D31A7B617B693B61134B1B68002B02D105
:1007CC00114B124A1A60104B1A687B6813443A6931
:1007DC009A4207D200F024FF03460C221A604FF015
:1007EC00FF3309E0084B1B68FB60074B1A687B68FA
:1007FC001344054A1360FB6818461837BD4680BD84
:10080C000028002000040000A4000020C0000020EC
:10081C0080B400AF00BFBD4680BC7047FFF7F8FF47
:10082C000B480C490C4A002302E0D458C450043342
:10083C00C4188C42F9D3094A094C002301E0136017
:10084C000432A242FBD300F0F1FEFFF7C5FD704766
:10085C000000002080000020A4260008800000205A
:10086C00BC000020FEE7000080B500AF084B1B6801
:10087C00074A43F010031360032000F02BF90F20FC
:10088C0000F008F8FFF7DCFE0023184680BD00BF1F
:10089C000020024080B582B000AF7860124B1A681D
:1008AC00124B1B7819464FF47A73B3FBF1F3B2FB7E
:1008BC00F3F3184600F035F90346002B01D0012361
:1008CC000EE07B680F2B0AD8002279684FF0FF30BE
:1008DC0000F00BF9064A7B681360002300E001234B
:1008EC0018460837BD4680BD1000002018000020B7
:1008FC001400002080B400AF054B1B781A46054B42
:10090C001B681344034A136000BFBD4680BC70478C
:10091C0018000020A800002080B400AF024B1B6818
:10092C001846BD4680BC7047A800002080B584B036
:10093C0000AF7860FFF7F0FFB8607B68FB60FB6886
:10094C00B3F1FF3F05D00A4B1B781A46FB681344E2
:10095C00FB6000BFFFF7E0FF0246BB68D31AFA68E2
:10096C009A42F7D800BF00BF1037BD4680BD00BF0C
:10097C001800002080B485B000AF78607B6803F06D
:10098C000703FB600C4BDB68BB60BA684FF6FF03D8
:10099C001340BB60FB681A02BB68134343F0BF6390
:1009AC0043F40033BB60044ABB68D36000BF143708
:1009BC00BD4680BC704700BF00ED00E080B400AFC6
:1009CC00044BDB681B0A03F007031846BD4680BCCA
:1009DC00704700BF00ED00E080B483B000AF034669
:1009EC003960FB7197F90730002B0ADB3B68DAB2F0
:1009FC000C4997F907301201D2B20B4483F800234B
:100A0C000AE03B68DAB20849FB7903F00F03043BB8
:100A1C001201D2B20B441A7600BF0C37BD4680BC13
:100A2C00704700BF00E100E000ED00E080B489B049
:100A3C0000AFF860B9607A60FB6803F00703FB61F4
:100A4C00FB69C3F10703042B28BF0423BB61FB69BB
:100A5C000433062B02D9FB69033B00E000237B61C6
:100A6C004FF0FF32BB6902FA03F3DA43BB681A405A
:100A7C007B699A404FF0FF317B6901FA03F3D9434C
:100A8C007B680B40134318462437BD4680BC704727
:100A9C0080B582B000AF78607B68013BB3F1807F9A
:100AAC0001D301230FE00A4A7B68013B53600F21FD
:100ABC004FF0FF30FFF790FF054B00229A60044B7C
:100ACC0007221A60002318460837BD4680BD00BFB8
:100ADC0010E000E080B582B000AF78607868FFF776
:100AEC0049FF00BF0837BD4680BD80B586B000AF5A
:100AFC000346B9607A60FB7300237B61FFF75EFFEE
:100B0C0078617A68B9687869FFF790FF024697F9BF
:100B1C000F3011461846FFF75FFF00BF1837BD4670
:100B2C0080BD80B582B000AF78607868FFF7B0FF09
:100B3C00034618460837BD4680BD000080B48BB014
:100B4C0000AF7860396000237B6200233B6261E177
:100B5C0001227B6A02FA03F3FB613B681B68FA69AA
:100B6C001340BB61BA69FB699A4240F050813B6803
:100B7C005B68974A93425ED0954A934275D8954AE2
:100B8C00934258D0934A93426FD8934A934252D08F
:100B9C00914A934269D8914A93424CD08F4A9342DE
:100BAC0063D88F4A934246D08D4A93425DD8122B1C
:100BBC002AD8122B59D801A252F823F0430C000862
:100BCC001D0C00082F0C0008710C0008770C000895
:100BDC00770C0008770C0008770C0008770C0008DD
:100BEC00770C0008770C0008770C0008770C0008CD
:100BFC00770C0008770C0008770C0008770C0008BD
:100C0C00250C0008390C0008764A934213D02CE0CE
:100C1C003B68DB683B6229E03B68DB6804333B6282
:100C2C0024E03B68DB6808333B621FE03B68DB6811
:100C3C000C333B621AE03B689B68002B02D1042307
:100C4C003B6213E03B689B68012B05D108233B6298
:100C5C007B68FA691A6109E008233B627B68FA69D0
:100C6C005A6103E000233B6200E000BFBB69FF2B2D
:100C7C0001D87B6801E07B6804337B61BB69FF2B87
:100C8C0002D87B6A9B0002E07B6A083B9B003B61BD
:100C9C007B691A680F213B6901FA03F3DB431A40A5
:100CAC00396A3B6901FA03F31A437B691A603B68A2
:100CBC005B6803F08053002B00F0A9804A4B9B69C2
:100CCC00494A43F001039361474B9B6903F00103CD
:100CDC00BB60BB68454A7B6A9B08023352F82330E1
:100CEC00FB607B6A03F003039B000F2202FA03F301
:100CFC00DB43FA681340FB607B683D4A93420DD09E
:100D0C007B683C4A934207D07B683B4A934201D1B3
:100D1C00022304E0032302E0012300E000237A6AAB
:100D2C0002F0030292009340FA681343FB602F49D0
:100D3C007B6A9B080233FA6841F823203B685B68A6
:100D4C0003F48013002B06D02C4B9A682B49BB69FB
:100D5C0013438B6006E0294B9A68BB69DB43274938
:100D6C0013408B603B685B6803F40013002B06D0C8
:100D7C00224BDA682149BB691343CB6006E01F4B59
:100D8C00DA68BB69DB431D491340CB603B685B6889
:100D9C0003F40033002B06D0184B5A681749BB6973
:100DAC0013434B6006E0154B5A68BB69DB43134990
:100DBC0013404B603B685B6803F48033002B1FD0FF
:100DCC000E4B1A680D49BB6913430B601FE000BF43
:100DDC000000321000003110000022100000211021
:100DEC000000121000001110001002400000014021
:100DFC0000080140000C01400010014000040140BB
:100E0C000B4B1A68BB69DB43094913400B607B6AC7
:100E1C0001337B623B681A687B6A22FA03F3002B6E
:100E2C007FF496AE00BF00BF2C37BD4680BC704728
:100E3C000004014080B483B000AF78600B467B8027
:100E4C0013467B707B78002B03D07A887B681A6101
:100E5C0003E07B881A047B681A6100BF0C37BD461F
:100E6C0080BC704780B586B000AF78607B68002B83
:100E7C0001D1012372E27B681B6803F00103002B94
:100E8C0000F08780924B5B6803F00C03042B0CD0B2
:100E9C008F4B5B6803F00C03082B12D18C4B5B68F7
:100EAC0003F48033B3F5803F0BD1894B1B6803F4FB
:100EBC000033002B6CD07B685B68002B68D101235E
:100ECC004CE27B685B68B3F5803F06D1804B1B68B6
:100EDC007F4A43F4803313602EE07B685B68002B01
:100EEC000CD17B4B1B687A4A23F480331360784B0C
:100EFC001B68774A23F4802313601DE07B685B68D2
:100F0C00B3F5A02F0CD1724B1B68714A43F48023AC
:100F1C0013606F4B1B686E4A43F4803313600BE015
:100F2C006B4B1B686A4A23F480331360684B1B6855
:100F3C00674A23F4802313607B685B68002B13D013
:100F4C00FFF7EAFC386108E0FFF7E6FC02463B6974
:100F5C00D31A642B01D9032300E25D4B1B6803F405
:100F6C000033002BF0D014E0FFF7D6FC386108E01A
:100F7C00FFF7D2FC02463B69D31A642B01D9032339
:100F8C00ECE1534B1B6803F40033002BF0D100E071
:100F9C0000BF7B681B6803F00203002B63D04C4B33
:100FAC005B6803F00C03002B0BD0494B5B6803F020
:100FBC000C03082B1CD1464B5B6803F48033002BCD
:100FCC0016D1434B1B6803F00203002B05D07B6842
:100FDC001B69012B01D00123C0E13D4B1B6823F0A1
:100FEC00F8027B685B69DB00394913430B603AE01C
:100FFC007B681B69002B20D0364B01221A60FFF74F
:10100C008BFC386108E0FFF787FC02463B69D31A7A
:10101C00022B01D90323A1E12D4B1B6803F0020322
:10102C00002BF0D02A4B1B6823F0F8027B685B691D
:10103C00DB00274913430B6015E0264B00221A6096
:10104C00FFF76AFC386108E0FFF766FC02463B6973
:10105C00D31A022B01D9032380E11D4B1B6803F02B
:10106C000203002BF0D17B681B6803F00803002BF4
:10107C003AD07B689B69002B19D0174B01221A6060
:10108C00FFF74AFC386108E0FFF746FC02463B6973
:10109C00D31A022B01D9032360E10D4B5B6A03F0D9
:1010AC000203002BF0D0012000F09CFA1CE00A4B4C
:1010BC0000221A60FFF730FC38610FE0FFF72CFCC0
:1010CC0002463B69D31A022B08D9032346E100BF21
:1010DC00001002400000424280044242924B5B6A84
:1010EC0003F00203002BE9D17B681B6803F00403B7
:1010FC00002B00F0A6800023FB758B4BDB6903F003
:10110C008053002B0DD1884BDB69874A43F0805309
:10111C00D361854BDB6903F08053BB60BB68012353
:10112C00FB75824B1B6803F48073002B18D17F4B2B
:10113C001B687E4A43F480731360FFF7EDFB386144
:10114C0008E0FFF7E9FB02463B69D31A642B01D98F
:10115C00032303E1754B1B6803F48073002BF0D061
:10116C007B68DB68012B06D16F4B1B6A6E4A43F020
:10117C00010313622DE07B68DB68002B0CD16A4BFA
:10118C001B6A694A23F001031362674B1B6A664AA8
:10119C0023F0040313621CE07B68DB68052B0CD185
:1011AC00614B1B6A604A43F0040313625E4B1B6A7B
:1011BC005D4A43F0010313620BE05B4B1B6A5A4A16
:1011CC0023F001031362584B1B6A574A23F00403A4
:1011DC0013627B68DB68002B15D0FFF79DFB386131
:1011EC000AE0FFF799FB02463B69D31A41F28832B9
:1011FC00934201D90323B1E04B4B1B6A03F002036A
:10120C00002BEED014E0FFF787FB38610AE0FFF704
:10121C0083FB02463B69D31A41F28832934201D9CF
:10122C0003239BE0404B1B6A03F00203002BEED11F
:10123C00FB7D012B05D13C4BDB693B4A23F08053F2
:10124C00D3617B68DB69002B00F08780364B5B68D1
:10125C0003F00C03082B61D07B68DB69022B46D1B1
:10126C00334B00221A60FFF757FB386108E0FFF799
:10127C0053FB02463B69D31A022B01D903236DE0C1
:10128C00294B1B6803F00073002BF0D17B681B6AA1
:10129C00B3F5803F08D1244B5B6823F400327B68A4
:1012AC009B68214913434B601F4B5B6823F47412FA
:1012BC007B68196A7B685B6A0B431B4913434B6061
:1012CC001B4B01221A60FFF727FB386108E0FFF780
:1012DC0023FB02463B69D31A022B01D903233DE0C1
:1012EC00114B1B6803F00073002BF0D035E0104B52
:1012FC0000221A60FFF710FB386108E0FFF70CFBC7
:10130C0002463B69D31A022B01D9032326E0064B74
:10131C001B6803F00073002BF0D11EE07B68DB69C7
:10132C00012B07D1012319E000100240007000408E
:10133C00600042420B4B5B68FB60FB6803F480323D
:10134C007B681B6A9A4206D1FB6803F470127B68B7
:10135C005B6A9A4201D0012300E00023184618373B
:10136C00BD4680BD0010024080B584B000AF7860EF
:10137C0039607B68002B01D10123D0E06A4B1B68DC
:10138C0003F007033A689A4210D9674B1B6823F0A5
:10139C00070265493B6813430B60634B1B6803F002
:1013AC0007033A689A4201D00123B8E07B681B68B6
:1013BC0003F00203002B20D07B681B6803F00403AE
:1013CC00002B05D0594B5B68584A43F4E0635360DB
:1013DC007B681B6803F00803002B05D0534B5B683C
:1013EC00524A43F460535360504B5B6823F0F00255
:1013FC007B689B684D4913434B607B681B6803F00B
:10140C000103002B40D07B685B68012B07D1474B55
:10141C001B6803F40033002B15D101237FE07B689C
:10142C005B68022B07D1414B1B6803F00073002B48
:10143C0009D1012373E03D4B1B6803F00203002B21
:10144C0001D101236BE0394B5B6823F003027B680D
:10145C005B68364913434B60FFF75EFAF8600AE0AD
:10146C00FFF75AFA0246FB68D31A41F288329342CC
:10147C0001D9032353E02D4B5B6803F00C027B680E
:10148C005B689B009A42EBD1274B1B6803F0070368
:10149C003A689A4210D2244B1B6823F00702224967
:1014AC003B6813430B60204B1B6803F007033A683F
:1014BC009A4201D0012332E07B681B6803F00403DD
:1014CC00002B08D0194B5B6823F4E0627B68DB6867
:1014DC00164913434B607B681B6803F00803002B11
:1014EC0009D0124B5B6823F460527B681B69DB00EC
:1014FC000E4913434B6000F021F802460B4B5B681E
:10150C001B0903F00F030A49CB5C22FA03F3094AC7
:10151C001360094B1B681846FFF7BCF900231846EB
:10152C001037BD4680BD00BF0020024000100240B5
:10153C00E0250008100000201400002080B487B0C3
:10154C0000AF0023FB600023BB6000237B61002302
:10155C007B6000233B611E4B5B68FB60FB6803F008
:10156C000C03042B02D0082B03D027E0194B3B6152
:10157C0027E0FB689B0C03F00F03174AD35C7B60DE
:10158C00FB6803F48033002B10D0114B5B685B0CB1
:10159C0003F00103114AD35CBB607B680D4A03FB6B
:1015AC0002F2BB68B2FBF3F37B6104E07B680C4A8C
:1015BC0002FB03F37B617B693B6102E0054B3B6102
:1015CC0000BF3B6918461C37BD4680BC704700BF46
:1015DC000010024000127A00F025000800260008D6
:1015EC0000093D0080B485B000AF78600A4B1B68E1
:1015FC000A4AA2FB03235B0A7A6802FB03F3FB6033
:10160C0000BFFB685A1EFA60002BF9D100BF00BF67
:10161C001437BD4680BC704710000020D34D6210BB
:10162C00014B1868704700BF1C00002070B50026E5
:10163C000C4D0D4C641BA410A64209D100F0B6FF52
:10164C0000260A4D0A4C641BA410A64205D170BD9D
:10165C0055F8043B98470136EEE755F8043B98479C
:10166C000136F2E79C2600089C2600089C26000800
:10167C00A026000803460244934200D1704703F8A9
:10168C00011BF9E70FB40A4B13B51C6824B1A3690D
:10169C0013B9204600F066F805AB2046049AA16801
:1016AC00019300F0BBF902B0BDE8104004B07047E4
:1016BC001C000020002310B50446C0E90033C0E92B
:1016CC000433836081814366C28183611946082299
:1016DC005C30FFF7CFFF054B24626362044BA362BF
:1016EC00044BE362044B236310BD00BFD51F0008FD
:1016FC00F71F00082F20000853200008014900F0B4
:10170C00AFB800BF25230008682270B54D1E5543A5
:10171C000E4605F1740100F0E5F8044640B10021D5
:10172C00C0E900160C30A06005F16802FFF7A2FFBB
:10173C00204670BD014800F0B3B800BFAD000020DA
:10174C00014800F0AEB800BFAD000020014800F029
:10175C00A7B800BFAE000020014800F0A2B800BF3F
:10176C00AE00002010B50446FFF7F0FFA3691BB1D3
:10177C00BDE81040FFF7F0BFC4E912332365134BEB
:10178C00134A1B68A262A34208BF0123204608BF6C
:10179C00A36100F01FF86060204600F01BF8A06009
:1017AC00204600F017F800220421E0606068FFF783
:1017BC0081FF01220921A068FFF77CFF0222122180
:1017CC00E068FFF777FF0123A361D1E70426000847
:1017DC0009170008F8B50746FFF7ACFF1E4B1E684B
:1017EC00B36913B93046FFF7BDFF4836D6E901346B
:1017FC00013B03D533680BB33668F7E7B4F90C50EB
:10180C00D5B9164B04F15800E360656600F047F853
:10181C00FFF796FF08222946C4E90155C4E904558F
:10182C002560A56104F15C00FFF724FFC4E90D55A8
:10183C00C4E912552046F8BD6834D9E7042138466E
:10184C00FFF762FF044630600028D5D1FFF778FF20
:10185C000C233B60EEE700BF042600080100FFFFED
:10186C002DE9F84306468846002700F14804D4E9E0
:10187C000195B9F1010905D52468002CF7D138463A
:10188C00BDE8F883AB89012B07D9B5F90E300133CC
:10189C0003D029463046C04707436835E9E770470F
:1018AC007047704770B50E4E0C463168054611B93D
:1018BC0000F07AFB30602146284600F075FB431C93
:1018CC000AD0C41C24F00304A04207D0211A2846D5
:1018DC0000F06AFB013001D14FF0FF34204670BD9F
:1018EC00B40000202DE9F041CD1C25F0030508358E
:1018FC000C2D38BF0C25002D074601DBA94205D95C
:10190C000C2300263B603046BDE8F0812E4E00F0E3
:10191C00C5FD33681C4634BB29463846FFF7C2FF69
:10192C00431C04464DD134682646002E40D1236812
:10193C003146384604EB030800F036FB80453AD1BB
:10194C00216803356D1A25F0030508350C2D38BFB9
:10195C000C2538462946FFF7A5FF01302BD023680C
:10196C002B4423600EE02268521B1ED40B2A16D97E
:10197C006119A342256018BF5960636808BF3160C4
:10198C0062514B60384604F10B0600F08DFD26F0D9
:10199C000706231DF21AB6D09B1BA350B3E762684F
:1019AC00A3420CBF32605A60ECE723466468B2E78E
:1019BC0034467668B9E70C2338463B6000F074FD7A
:1019CC00A1E72560DEE700BFB0000020936810B4EB
:1019DC00013B002B936007DA9469A34201DB0A29CF
:1019EC0002D110BC00F034BB1368581C1060197085
:1019FC00084610BC7047F8B506460F461446D51875
:101A0C00AC4201D1002007E03A46304614F8011BE5
:101A1C00FFF7DCFF431CF3D1F8BD00002DE9F04FBC
:101A2C000D461446984606469DB018B183690BB90D
:101A3C00FFF798FE894B9D421BD175686B6ED907D9
:101A4C0005D4AB899A0502D4A86DFFF729FFAB89A1
:101A5C001B0701D52B69EBB92946304600F05CFB1E
:101A6C00C0B16B6EDC070ED54FF0FF301DB0BDE87A
:101A7C00F08F7B4B9D4201D1B568DFE7794B9D42DE
:101A8C0008BFF568DAE7AB899805EDD4A86DFFF7C8
:101A9C0008FFE9E70023099320238DF82930302330
:101AAC004FF00109CDF80C80DFF8BC818DF82A309D
:101ABC0023469A4613F8012B0AB1252AF9D1BAEB21
:101ACC00040B0BD05B46224629463046FFF793FFAA
:101ADC00013000F0AA80099A5A4409929AF8003011
:101AEC00002B00F0A28000234FF0FF32CDE905233C
:101AFC000AF1010A049307938DF853301A93544654
:101B0C00052214F8011B584800F0BAFC049AD8B905
:101B1C00D10644BF20238DF85330130744BF2B2329
:101B2C008DF853309AF800302A2B15D054460020EB
:101B3C004FF00A0C079A214611F8013B303B092B58
:101B4C004ED9B0B1079214E0A0EB080309FA03F3E5
:101B5C001343A2460493D2E7039B191D1B68039100
:101B6C00002BBBBF5B4242F0020207930793B8BF46
:101B7C00049223782E2B0CD163782A2B35D1039B1E
:101B8C0002341A1D1B680392002BB8BF4FF0FF33B1
:101B9C000593DFF8D8A003225046217800F070FCA2
:101BAC0040B14023A0EB0A0003FA00F0049B01347F
:101BBC000343049314F8011B06222D488DF82810BA
:101BCC0000F05EFC00283FD02A4B1BBB039B073365
:101BDC0023F0070308330393099B3B44099367E7FE
:101BEC000C4601200CFB0232A5E700234FF00A0C37
:101BFC00194601340593204610F8012B303A092A76
:101C0C0003D9002BC5D00591C3E7044601230CFB77
:101C1C000121F0E703AB00932A463046164B04A98A
:101C2C00AFF300800746781CD6D16B6ED90705D46C
:101C3C00AB899A0502D4A86DFFF733FEAB895B061E
:101C4C003FF512AF099811E703AB00932A463046D3
:101C5C00094B04A900F082F8E4E700BF282600082D
:101C6C004826000808260008682600086E2600088A
:101C7C007226000800000000031A00082DE9F04746
:101C8C00164699468A680B6907469342B8BF1346B5
:101C9C00336091F843200C46DDF820800AB1013303
:101CAC0033602368990642BF33680233336025687A
:101CBC0015F0060506D104F1190AE36832689B1A7F
:101CCC00AB4228DC94F84320131E226818BF012372
:101CDC0092062DD44946384604F14302C0470130E0
:101CEC0020D02368E56803F00603042B18BF0025F9
:101CFC0032684FF00006A36808BFAD1A226908BF0E
:101D0C0025EAE5759342C4BF9B1AED181A34B54207
:101D1C001AD1002008E00123524649463846C047F4
:101D2C00013003D14FF0FF30BDE8F0870135C4E737
:101D3C003020E11881F843005A1C94F845102244D5
:101D4C00023382F84310C5E7012322464946384640
:101D5C00C0470130E6D00136D9E700002DE9FF4736
:101D6C000F7E9146782F80460C469A460C9D01F1C9
:101D7C00430207D8622F0AD8002F00F0D980582FC1
:101D8C0000F0A48004F1420584F842703AE0A7F117
:101D9C006303152BF6D801A151F823F0011E00089E
:101DAC00151E0008911D0008911D0008911D0008CA
:101DBC00911D0008151E0008911D0008911D0008BA
:101DCC00911D0008911D0008231F0008451E0008E6
:101DDC00051F0008911D0008911D0008451F0008F3
:101DEC00911D0008451E0008911D0008911D00085A
:101DFC000D1F00082B681A1D1B682A6004F1420590
:101E0C0084F842300123A4E020682968060601F119
:101E1C0004030AD50E682B60002E03DA2D237642BC
:101E2C0084F843300A235E4819E00E6810F0400F26
:101E3C002B6018BF36B2EFE72B682068191D29609C
:101E4C00010601D51E6802E04606FBD51E886F2FE1
:101E5C000CBF08230A235248002184F843106568FC
:101E6C00002DA8BF2168A560A4BF21F0040121604A
:101E7C000EB9002D4DD01546B6FBF3F103FB1167DF
:101E8C00C75D05F8017D3746BB420E46F4D9082BD9
:101E9C000BD12368DE0708D5236961689942DEBF40
:101EAC00302305F8013C05F1FF35521B22614B46EE
:101EBC0021464046CDF800A003AAFFF7DFFE013013
:101ECC004CD14FF0FF3004B0BDE8F087344881F8B6
:101EDC0045702968236851F8046B29601D0614D5D8
:101EEC00DF0744BF43F0200323601EB9236823F0AF
:101EFC00200323601023AFE7236843F02003236003
:101F0C007823284884F84530E3E7590648BFB6B231
:101F1C00E6E71546BBE72B682668181D6169286043
:101F2C0035061B6801D5196002E07006FBD51980D7
:101F3C00002315462361BAE72B6800211A1D2A607D
:101F4C001D686268284600F09BFA08B1401B60606F
:101F5C0063682361002384F84330A8E72A46494686
:101F6C0040462369D0470130ABD023689B0713D47C
:101F7C00E068039B9842B8BF1846A4E70123324699
:101F8C0049464046D04701309BD00135E368039960
:101F9C005B1AAB42F2DCEBE7002504F11906F5E71E
:101FAC00792600088A26000838B50023054D04461A
:101FBC0008462B60FEF7F6FB431C02D12B6803B1DD
:101FCC00236038BDB800002010B50C46B1F90E10D6
:101FDC0000F0B8FA0028ABBF636DA3891B1823F47B
:101FEC008053ACBF6365A38110BD2DE9F0411F4642
:101FFC008B890546DB050C46164605D502230022C7
:10200C00B1F90E1000F0C4F9A389324623F48053C1
:10201C00A38128463B46B4F90E10BDE8F04100F010
:10202C0069B810B50C46B1F90E1000F0B1F9431CAB
:10203C00A38915BF606523F4805343F48053A381B7
:10204C0018BFA38110BDB1F90E1000F0D3B8000079
:10205C00F8B50E461446054618B183690BB9FFF75F
:10206C0081FB214B9C422BD16C68A369A360A38993
:10207C001A072FD523696BB323692068F6B2C01AEF
:10208C0063693746834204DC2146284600F044F954
:10209C0030BBA3680130013BA36023685A1C22604B
:1020AC001E706369834204D0A389DB0706D50A2E10
:1020BC0004D12146284600F02FF988B93846F8BDDE
:1020CC000A4B9C4201D1AC68CFE7094B9C4208BF3C
:1020DC00EC68CAE72146284600F01EF80028CBD051
:1020EC004FF0FF37EAE700BF282600084826000813
:1020FC000826000838B50446084611460022054D4E
:10210C002A601A46FEF702FB431C02D12B6803B16E
:10211C00236038BDB8000020324B70B51D680646F0
:10212C000C4625B1AB6913B92846FFF71BFB2E4BA8
:10213C009C420FD16C68A389B4F90C2019072CD4DC
:10214C00DD0611D40923336042F040034FF0FF3019
:10215C00A3813EE0254B9C4201D1AC68EBE7244BBC
:10216C009C4208BFEC68E6E7580712D5616B41B199
:10217C0004F14403994202D0304600F09BF900234D
:10218C006363A38923F02403A38100236360236981
:10219C002360A38943F00803A38123694BB9A38966
:1021AC0003F42073B3F5007F03D02146304600F0D2
:1021BC0027F9A089B4F90C2010F001030AD00023F0
:1021CC00A36063695B42A361236943B910F080008B
:1021DC00BAD170BD810758BF6369A360F4E70020D2
:1021EC00F7E700BF1C00002028260008482600083E
:1021FC000826000838B50023054D044608462B6018
:10220C00FEF7A0FA431C02D12B6803B1236038BD42
:10221C00B80000208A89F8B5054610070C4657D43B
:10222C004B68002B04DC0B6C002B01DC0020F8BD90
:10223C00E66A002EFAD0002312F480522F682B602D
:10224C0032D0606DA3895A0705D56368C01A636BD9
:10225C000BB1236CC01A00230246E66A2846216A99
:10226C00B047431CA38906D129681D292CD8294ABB
:10227C00CA40D60728D5002262602269D9042260A0
:10228C0004D5421C01D12B6803B96065616B2F60CA
:10229C000029CBD004F14403994202D0284600F027
:1022AC0009F900206063C2E7216A01232846B04780
:1022BC00411CC7D12B68002BC4D01D2B01D0162B71
:1022CC0001D12F60B2E7A38943F04003A381AEE7AD
:1022DC000F69002FAAD0930718BF00230E6808BF00
:1022EC004B69F61B0F608B60002E9FDD33463A4620
:1022FC002846216AD4F828C0E047002806DCA389C8
:10230C004FF0FF3043F04003A38190E70744361AA7
:10231C00EAE700BF0100402038B50B6905460C46C2
:10232C0013B90025284638BD18B183690BB9FFF7DE
:10233C0019FA144B9C421BD16C68B4F90C30002B6D
:10234C00EFD0626ED00704D4990502D4A06DFFF7CC
:10235C00A7FA28462146FFF75DFF636E0546DA07AC
:10236C00E0D4A3899B05DDD4A06DFFF79AFAD9E7D9
:10237C00054B9C4201D1AC68DFE7044B9C4208BF83
:10238C00EC68DAE72826000848260008082600082A
:10239C0038B50446084611460022054D2A601A46F7
:1023AC00FEF7F4F9431C02D12B6803B1236038BD4E
:1023BC00B800002070B50E46B1F90E101446002975
:1023CC001D4696B008DA0022B6F90C302A601A06BF
:1023DC0010D44FF480630EE06A4600F0C5F8002874
:1023EC00F1DB019A02F47042A2F500535A425A41B1
:1023FC002A60EEE740230020236016B070BD000079
:10240C008B8973B59D0706460C4607D504F1470327
:10241C00236023610123636102B070BD6A4601AB86
:10242C00FFF7C8FF009905463046FFF75BFA48B93D
:10243C00B4F90C309A05EFD423F0030343F00203F4
:10244C00A381E3E70D4BB362A389206043F08003C3
:10245C00A381009B20616361019B5BB13046B4F9A1
:10246C000E1000F093F828B1A38923F0030343F076
:10247C000103A381A0890543A581CDE709170008B5
:10248C00034610B5C9B202449342184601D100204C
:10249C0003E0047801338C42F6D110BD0148FFF7FC
:1024AC00FFB900BFAC0000200148FFF7FAB900BF2C
:1024BC00AC00002038B50546002940D051F8043C4A
:1024CC000C1F002BB8BFE418FFF7E8FF1C4A136879
:1024DC0033B9636014602846BDE83840FFF7E4BFA9
:1024EC00A34208D9206821188B4201BF19685B6888
:1024FC0009182160EDE71A465B680BB1A342FAD9C3
:10250C0011685018A0420BD1206801445018834226
:10251C001160E0D118685B68014411605360DAE720
:10252C0002D90C232B60D6E7206821188B4201BFFF
:10253C0019685B680918216063605460CBE738BD8B
:10254C00B000002038B50446084611460022054D5F
:10255C002A601A46FEF7BDF8431C02D12B6803B162
:10256C00236038BDB800002038B50023064D044662
:10257C00084611462B60FEF7F0F8431C02D12B687D
:10258C0003B1236038BD00BFB800002038B500236C
:10259C00054D044608462B60FEF7EEF8431C02D1AD
:1025AC002B6803B1236038BDB8000020F8B500BF1C
:1025BC00F8BC08BC9E467047F8B500BFF8BC08BC18
:0425CC009E46704770
:1025D0004572726F72206E756D6265722100000027
:1025E00000000000000000000102030406070809C3
:1025F00002030405060708090A0B0C0D0E0F101044
:102600000102000020000020000000000000000087
:1026100000000000000000000000000000000000BA
:1026200000000000000000000000000000000000AA
:10263000000000000000000000000000000000009A
:10264000000000000000000000000000000000008A
:10265000000000000000000000000000000000007A
:102660000000000000000000232D302B2000686CCB
:102670004C006566674546470030313233343536A5
:1026800037383941424344454600303132333435DE
:0C2690003637383961626364656600000B
:04269C003101000800
:0426A0000D01000820
:1026A4000600000014000000020000000A00000000
:1026B4000024F400100000000100000020000020AD
:1026C4000000000028260008482600080826000804
:1026D40000000000000000000000000000000000F6
:1026E40000000000000000000000000000000000E6
:1026F40000000000000000000000000000000000D6
:1027040000000000000000000000000000000000C5
:1027140000000000000000000000000000000000B5
:0400000508000829BE
:00000001FF
